{
  "abi": [
    {
      "inputs": [],
      "name": "deposit_funds",
      "outputs": [],
      "stateMutability": "payable",
      "type": "function"
    },
    {
      "inputs": [],
      "name": "get_balance",
      "outputs": [
        {
          "internalType": "uint256",
          "name": "",
          "type": "uint256"
        }
      ],
      "stateMutability": "view",
      "type": "function"
    },
    {
      "inputs": [],
      "name": "get_blocks",
      "outputs": [
        {
          "internalType": "uint256[]",
          "name": "",
          "type": "uint256[]"
        }
      ],
      "stateMutability": "view",
      "type": "function"
    },
    {
      "inputs": [
        {
          "internalType": "address",
          "name": "recieving_address",
          "type": "address"
        },
        {
          "internalType": "uint256",
          "name": "_funds",
          "type": "uint256"
        }
      ],
      "name": "transfer_funds",
      "outputs": [],
      "stateMutability": "nonpayable",
      "type": "function"
    },
    {
      "inputs": [
        {
          "internalType": "uint256",
          "name": "_funds",
          "type": "uint256"
        }
      ],
      "name": "withdraw_funds",
      "outputs": [],
      "stateMutability": "nonpayable",
      "type": "function"
    }
  ],
  "bytecode": "6080604052348015600f57600080fd5b5061055a8061001f6000396000f3fe60806040526004361061004a5760003560e01c806313ee6a731461004f578063584bc50b146100595780635d2c53a7146100795780636957ebd814610099578063c1cfb99a146100c4575b600080fd5b6100576100ef565b005b34801561006557600080fd5b5061005761007436600461044e565b6101a1565b34801561008557600080fd5b50610057610094366004610486565b61029a565b3480156100a557600080fd5b506100ae6103ed565b6040516100bb919061049f565b60405180910390f35b3480156100d057600080fd5b50336000908152602081905260409020546040519081526020016100bb565b6000341161015a5760405162461bcd60e51b815260206004820152602d60248201527f596f75206d757374206465706f7369742066756e6473207468617420746f746160448201526c06c206d6f7265207468616e203609c1b60648201526084015b60405180910390fd5b33600090815260208190526040812080543492906101799084906104f8565b9091555050336000908152600160208181526040832080549283018155835290912043910155565b336000908152602081905260409020548111156102005760405162461bcd60e51b815260206004820152601c60248201527f4e6f7420656e6f7567682066756e647320746f207472616e73666572000000006044820152606401610151565b336000908152602081905260408120805483929061021f908490610511565b90915550506001600160a01b0382166000908152602081905260408120805483929061024c9084906104f8565b9091555050336000908152600160208181526040808420805480850182559085528285204391018190556001600160a01b039690961684528320805492830181558352909120019190915550565b336000908152602081905260409020548111156102f95760405162461bcd60e51b815260206004820152601c60248201527f4e6f7420656e6f7567682066756e647320746f207769746864726177000000006044820152606401610151565b3360009081526020819052604081208054839290610318908490610511565b90915550506040516f20b6b7bab73a102bb4ba34323930bbb760811b81526000903390839060100160006040518083038185875af1925050503d806000811461037d576040519150601f19603f3d011682016040523d82523d6000602084013e610382565b606091505b50509050806103c85760405162461bcd60e51b8152602060048201526012602482015271496e73756666696369656e742046756e647360701b6044820152606401610151565b5050336000908152600160208181526040832080549283018155835290912043910155565b3360009081526001602090815260409182902080548351818402810184019094528084526060939283018282801561044457602002820191906000526020600020905b815481526020019060010190808311610430575b5050505050905090565b6000806040838503121561046157600080fd5b82356001600160a01b038116811461047857600080fd5b946020939093013593505050565b60006020828403121561049857600080fd5b5035919050565b602080825282518282018190526000918401906040840190835b818110156104d75783518352602093840193909201916001016104b9565b509095945050505050565b634e487b7160e01b600052601160045260246000fd5b8082018082111561050b5761050b6104e2565b92915050565b8181038181111561050b5761050b6104e256fea2646970667358221220eb0ff44dd987645e5fdbcd81637d0fe68f4b93dc6d7e9ad91d8e61901f77c39e64736f6c634300081c0033",
  "bytecodeSha1": "76811c01c9007c4fddc9b0389b77f88d506fbcdd",
  "compiler": {
    "evm_version": "istanbul",
    "optimizer": {
      "enabled": true,
      "runs": 200
    },
    "version": "0.8.28+commit.7893614a"
  },
  "contractName": "Bank",
  "language": "Solidity",
  "natspec": {
    "kind": "dev",
    "methods": {},
    "version": 1
  },
  "opcodes": "PUSH1 0x80 PUSH1 0x40 MSTORE PUSH1 0x4 CALLDATASIZE LT PUSH2 0x4A JUMPI PUSH1 0x0 CALLDATALOAD PUSH1 0xE0 SHR DUP1 PUSH4 0x13EE6A73 EQ PUSH2 0x4F JUMPI DUP1 PUSH4 0x584BC50B EQ PUSH2 0x59 JUMPI DUP1 PUSH4 0x5D2C53A7 EQ PUSH2 0x79 JUMPI DUP1 PUSH4 0x6957EBD8 EQ PUSH2 0x99 JUMPI DUP1 PUSH4 0xC1CFB99A EQ PUSH2 0xC4 JUMPI JUMPDEST PUSH1 0x0 DUP1 REVERT JUMPDEST PUSH2 0x57 PUSH2 0xEF JUMP JUMPDEST STOP JUMPDEST CALLVALUE DUP1 ISZERO PUSH2 0x65 JUMPI PUSH1 0x0 DUP1 REVERT JUMPDEST POP PUSH2 0x57 PUSH2 0x74 CALLDATASIZE PUSH1 0x4 PUSH2 0x44E JUMP JUMPDEST PUSH2 0x1A1 JUMP JUMPDEST CALLVALUE DUP1 ISZERO PUSH2 0x85 JUMPI PUSH1 0x0 DUP1 REVERT JUMPDEST POP PUSH2 0x57 PUSH2 0x94 CALLDATASIZE PUSH1 0x4 PUSH2 0x486 JUMP JUMPDEST PUSH2 0x29A JUMP JUMPDEST CALLVALUE DUP1 ISZERO PUSH2 0xA5 JUMPI PUSH1 0x0 DUP1 REVERT JUMPDEST POP PUSH2 0xAE PUSH2 0x3ED JUMP JUMPDEST PUSH1 0x40 MLOAD PUSH2 0xBB SWAP2 SWAP1 PUSH2 0x49F JUMP JUMPDEST PUSH1 0x40 MLOAD DUP1 SWAP2 SUB SWAP1 RETURN JUMPDEST CALLVALUE DUP1 ISZERO PUSH2 0xD0 JUMPI PUSH1 0x0 DUP1 REVERT JUMPDEST POP CALLER PUSH1 0x0 SWAP1 DUP2 MSTORE PUSH1 0x20 DUP2 SWAP1 MSTORE PUSH1 0x40 SWAP1 KECCAK256 SLOAD PUSH1 0x40 MLOAD SWAP1 DUP2 MSTORE PUSH1 0x20 ADD PUSH2 0xBB JUMP JUMPDEST PUSH1 0x0 CALLVALUE GT PUSH2 0x15A JUMPI PUSH1 0x40 MLOAD PUSH3 0x461BCD PUSH1 0xE5 SHL DUP2 MSTORE PUSH1 0x20 PUSH1 0x4 DUP3 ADD MSTORE PUSH1 0x2D PUSH1 0x24 DUP3 ADD MSTORE PUSH32 0x596F75206D757374206465706F7369742066756E6473207468617420746F7461 PUSH1 0x44 DUP3 ADD MSTORE PUSH13 0x6C206D6F7265207468616E203 PUSH1 0x9C SHL PUSH1 0x64 DUP3 ADD MSTORE PUSH1 0x84 ADD JUMPDEST PUSH1 0x40 MLOAD DUP1 SWAP2 SUB SWAP1 REVERT JUMPDEST CALLER PUSH1 0x0 SWAP1 DUP2 MSTORE PUSH1 0x20 DUP2 SWAP1 MSTORE PUSH1 0x40 DUP2 KECCAK256 DUP1 SLOAD CALLVALUE SWAP3 SWAP1 PUSH2 0x179 SWAP1 DUP5 SWAP1 PUSH2 0x4F8 JUMP JUMPDEST SWAP1 SWAP2 SSTORE POP POP CALLER PUSH1 0x0 SWAP1 DUP2 MSTORE PUSH1 0x1 PUSH1 0x20 DUP2 DUP2 MSTORE PUSH1 0x40 DUP4 KECCAK256 DUP1 SLOAD SWAP3 DUP4 ADD DUP2 SSTORE DUP4 MSTORE SWAP1 SWAP2 KECCAK256 NUMBER SWAP2 ADD SSTORE JUMP JUMPDEST CALLER PUSH1 0x0 SWAP1 DUP2 MSTORE PUSH1 0x20 DUP2 SWAP1 MSTORE PUSH1 0x40 SWAP1 KECCAK256 SLOAD DUP2 GT ISZERO PUSH2 0x200 JUMPI PUSH1 0x40 MLOAD PUSH3 0x461BCD PUSH1 0xE5 SHL DUP2 MSTORE PUSH1 0x20 PUSH1 0x4 DUP3 ADD MSTORE PUSH1 0x1C PUSH1 0x24 DUP3 ADD MSTORE PUSH32 0x4E6F7420656E6F7567682066756E647320746F207472616E7366657200000000 PUSH1 0x44 DUP3 ADD MSTORE PUSH1 0x64 ADD PUSH2 0x151 JUMP JUMPDEST CALLER PUSH1 0x0 SWAP1 DUP2 MSTORE PUSH1 0x20 DUP2 SWAP1 MSTORE PUSH1 0x40 DUP2 KECCAK256 DUP1 SLOAD DUP4 SWAP3 SWAP1 PUSH2 0x21F SWAP1 DUP5 SWAP1 PUSH2 0x511 JUMP JUMPDEST SWAP1 SWAP2 SSTORE POP POP PUSH1 0x1 PUSH1 0x1 PUSH1 0xA0 SHL SUB DUP3 AND PUSH1 0x0 SWAP1 DUP2 MSTORE PUSH1 0x20 DUP2 SWAP1 MSTORE PUSH1 0x40 DUP2 KECCAK256 DUP1 SLOAD DUP4 SWAP3 SWAP1 PUSH2 0x24C SWAP1 DUP5 SWAP1 PUSH2 0x4F8 JUMP JUMPDEST SWAP1 SWAP2 SSTORE POP POP CALLER PUSH1 0x0 SWAP1 DUP2 MSTORE PUSH1 0x1 PUSH1 0x20 DUP2 DUP2 MSTORE PUSH1 0x40 DUP1 DUP5 KECCAK256 DUP1 SLOAD DUP1 DUP6 ADD DUP3 SSTORE SWAP1 DUP6 MSTORE DUP3 DUP6 KECCAK256 NUMBER SWAP2 ADD DUP2 SWAP1 SSTORE PUSH1 0x1 PUSH1 0x1 PUSH1 0xA0 SHL SUB SWAP7 SWAP1 SWAP7 AND DUP5 MSTORE DUP4 KECCAK256 DUP1 SLOAD SWAP3 DUP4 ADD DUP2 SSTORE DUP4 MSTORE SWAP1 SWAP2 KECCAK256 ADD SWAP2 SWAP1 SWAP2 SSTORE POP JUMP JUMPDEST CALLER PUSH1 0x0 SWAP1 DUP2 MSTORE PUSH1 0x20 DUP2 SWAP1 MSTORE PUSH1 0x40 SWAP1 KECCAK256 SLOAD DUP2 GT ISZERO PUSH2 0x2F9 JUMPI PUSH1 0x40 MLOAD PUSH3 0x461BCD PUSH1 0xE5 SHL DUP2 MSTORE PUSH1 0x20 PUSH1 0x4 DUP3 ADD MSTORE PUSH1 0x1C PUSH1 0x24 DUP3 ADD MSTORE PUSH32 0x4E6F7420656E6F7567682066756E647320746F20776974686472617700000000 PUSH1 0x44 DUP3 ADD MSTORE PUSH1 0x64 ADD PUSH2 0x151 JUMP JUMPDEST CALLER PUSH1 0x0 SWAP1 DUP2 MSTORE PUSH1 0x20 DUP2 SWAP1 MSTORE PUSH1 0x40 DUP2 KECCAK256 DUP1 SLOAD DUP4 SWAP3 SWAP1 PUSH2 0x318 SWAP1 DUP5 SWAP1 PUSH2 0x511 JUMP JUMPDEST SWAP1 SWAP2 SSTORE POP POP PUSH1 0x40 MLOAD PUSH16 0x20B6B7BAB73A102BB4BA34323930BBB7 PUSH1 0x81 SHL DUP2 MSTORE PUSH1 0x0 SWAP1 CALLER SWAP1 DUP4 SWAP1 PUSH1 0x10 ADD PUSH1 0x0 PUSH1 0x40 MLOAD DUP1 DUP4 SUB DUP2 DUP6 DUP8 GAS CALL SWAP3 POP POP POP RETURNDATASIZE DUP1 PUSH1 0x0 DUP2 EQ PUSH2 0x37D JUMPI PUSH1 0x40 MLOAD SWAP2 POP PUSH1 0x1F NOT PUSH1 0x3F RETURNDATASIZE ADD AND DUP3 ADD PUSH1 0x40 MSTORE RETURNDATASIZE DUP3 MSTORE RETURNDATASIZE PUSH1 0x0 PUSH1 0x20 DUP5 ADD RETURNDATACOPY PUSH2 0x382 JUMP JUMPDEST PUSH1 0x60 SWAP2 POP JUMPDEST POP POP SWAP1 POP DUP1 PUSH2 0x3C8 JUMPI PUSH1 0x40 MLOAD PUSH3 0x461BCD PUSH1 0xE5 SHL DUP2 MSTORE PUSH1 0x20 PUSH1 0x4 DUP3 ADD MSTORE PUSH1 0x12 PUSH1 0x24 DUP3 ADD MSTORE PUSH18 0x496E73756666696369656E742046756E6473 PUSH1 0x70 SHL PUSH1 0x44 DUP3 ADD MSTORE PUSH1 0x64 ADD PUSH2 0x151 JUMP JUMPDEST POP POP CALLER PUSH1 0x0 SWAP1 DUP2 MSTORE PUSH1 0x1 PUSH1 0x20 DUP2 DUP2 MSTORE PUSH1 0x40 DUP4 KECCAK256 DUP1 SLOAD SWAP3 DUP4 ADD DUP2 SSTORE DUP4 MSTORE SWAP1 SWAP2 KECCAK256 NUMBER SWAP2 ADD SSTORE JUMP JUMPDEST CALLER PUSH1 0x0 SWAP1 DUP2 MSTORE PUSH1 0x1 PUSH1 0x20 SWAP1 DUP2 MSTORE PUSH1 0x40 SWAP2 DUP3 SWAP1 KECCAK256 DUP1 SLOAD DUP4 MLOAD DUP2 DUP5 MUL DUP2 ADD DUP5 ADD SWAP1 SWAP5 MSTORE DUP1 DUP5 MSTORE PUSH1 0x60 SWAP4 SWAP3 DUP4 ADD DUP3 DUP3 DUP1 ISZERO PUSH2 0x444 JUMPI PUSH1 0x20 MUL DUP3 ADD SWAP2 SWAP1 PUSH1 0x0 MSTORE PUSH1 0x20 PUSH1 0x0 KECCAK256 SWAP1 JUMPDEST DUP2 SLOAD DUP2 MSTORE PUSH1 0x20 ADD SWAP1 PUSH1 0x1 ADD SWAP1 DUP1 DUP4 GT PUSH2 0x430 JUMPI JUMPDEST POP POP POP POP POP SWAP1 POP SWAP1 JUMP JUMPDEST PUSH1 0x0 DUP1 PUSH1 0x40 DUP4 DUP6 SUB SLT ISZERO PUSH2 0x461 JUMPI PUSH1 0x0 DUP1 REVERT JUMPDEST DUP3 CALLDATALOAD PUSH1 0x1 PUSH1 0x1 PUSH1 0xA0 SHL SUB DUP2 AND DUP2 EQ PUSH2 0x478 JUMPI PUSH1 0x0 DUP1 REVERT JUMPDEST SWAP5 PUSH1 0x20 SWAP4 SWAP1 SWAP4 ADD CALLDATALOAD SWAP4 POP POP POP JUMP JUMPDEST PUSH1 0x0 PUSH1 0x20 DUP3 DUP5 SUB SLT ISZERO PUSH2 0x498 JUMPI PUSH1 0x0 DUP1 REVERT JUMPDEST POP CALLDATALOAD SWAP2 SWAP1 POP JUMP JUMPDEST PUSH1 0x20 DUP1 DUP3 MSTORE DUP3 MLOAD DUP3 DUP3 ADD DUP2 SWAP1 MSTORE PUSH1 0x0 SWAP2 DUP5 ADD SWAP1 PUSH1 0x40 DUP5 ADD SWAP1 DUP4 JUMPDEST DUP2 DUP2 LT ISZERO PUSH2 0x4D7 JUMPI DUP4 MLOAD DUP4 MSTORE PUSH1 0x20 SWAP4 DUP5 ADD SWAP4 SWAP1 SWAP3 ADD SWAP2 PUSH1 0x1 ADD PUSH2 0x4B9 JUMP JUMPDEST POP SWAP1 SWAP6 SWAP5 POP POP POP POP POP JUMP JUMPDEST PUSH4 0x4E487B71 PUSH1 0xE0 SHL PUSH1 0x0 MSTORE PUSH1 0x11 PUSH1 0x4 MSTORE PUSH1 0x24 PUSH1 0x0 REVERT JUMPDEST DUP1 DUP3 ADD DUP1 DUP3 GT ISZERO PUSH2 0x50B JUMPI PUSH2 0x50B PUSH2 0x4E2 JUMP JUMPDEST SWAP3 SWAP2 POP POP JUMP JUMPDEST DUP2 DUP2 SUB DUP2 DUP2 GT ISZERO PUSH2 0x50B JUMPI PUSH2 0x50B PUSH2 0x4E2 JUMP INVALID LOG2 PUSH5 0x6970667358 0x22 SLT KECCAK256 0xEB 0xF DELEGATECALL 0x4D 0xD9 DUP8 PUSH5 0x5E5FDBCD81 PUSH4 0x7D0FE68F 0x4B SWAP4 0xDC PUSH14 0x7E9AD91D8E61901F77C39E64736F PUSH13 0x634300081C0033000000000000 ",
  "sha1": "5d4a0579acd23ada2422149e0969059d7f856382",
  "source": "// SPDX-License-Identifier: MIT\npragma solidity ^0.8.0;\n\ncontract Bank{\n\n    mapping(address => uint256) private account_balances;\n    mapping(address => uint[]) private blocks; //transaction history\n\n    function deposit_funds() public payable {\n        require(msg.value > 0, \"You must deposit funds that total more than 0\");\n        \n        account_balances[msg.sender] += msg.value;\n        blocks[msg.sender].push(block.number);\n    }\n\n    function withdraw_funds(uint256 _funds) public {\n        require(account_balances[msg.sender] >= _funds, \"Not enough funds to withdraw\");\n\n        account_balances[msg.sender] -= _funds;\n\n        (bool success, ) = msg.sender.call{value: _funds}(\"Amount Withdrawn\");\n        require(success, \"Insufficient Funds\");\n        blocks[msg.sender].push(block.number);\n    }\n\n    function transfer_funds(address recieving_address, uint256 _funds) public {\n        require(account_balances[msg.sender] >= _funds, \"Not enough funds to transfer\");\n\n        account_balances[msg.sender] -= _funds;\n        account_balances[recieving_address] += _funds;\n\n        blocks[msg.sender].push(block.number);\n        blocks[recieving_address].push(block.number);\n    }\n\n    function get_balance() public view returns(uint256){\n        return account_balances[msg.sender];\n    }\n\n    function get_blocks() public view returns(uint[] memory){\n        return blocks[msg.sender];\n    }\n}",
  "sourcePath": "contracts/bank.sol",
  "type": "contract"
}